{
  "_format": "hh-sol-artifact-1",
  "contractName": "ProofOfExistence",
  "sourceName": "contracts/Pof.sol",
  "abi": [
    {
      "inputs": [
        {
          "internalType": "bytes32",
          "name": "docHash",
          "type": "bytes32"
        },
        {
          "internalType": "address",
          "name": "originalSubmitter",
          "type": "address"
        },
        {
          "internalType": "uint256",
          "name": "timestamp",
          "type": "uint256"
        }
      ],
      "name": "AlreadyNotarized",
      "type": "error"
    },
    {
      "inputs": [],
      "name": "NotTheOriginalSubmitter",
      "type": "error"
    },
    {
      "anonymous": false,
      "inputs": [
        {
          "indexed": false,
          "internalType": "bytes32",
          "name": "docHash",
          "type": "bytes32"
        },
        {
          "indexed": false,
          "internalType": "address",
          "name": "submitter",
          "type": "address"
        },
        {
          "indexed": false,
          "internalType": "uint256",
          "name": "timestamp",
          "type": "uint256"
        }
      ],
      "name": "Notarized",
      "type": "event"
    },
    {
      "anonymous": false,
      "inputs": [
        {
          "indexed": false,
          "internalType": "bytes32",
          "name": "docHash",
          "type": "bytes32"
        },
        {
          "indexed": false,
          "internalType": "address",
          "name": "submitter",
          "type": "address"
        }
      ],
      "name": "Revoked",
      "type": "event"
    },
    {
      "inputs": [],
      "name": "documentCount",
      "outputs": [
        {
          "internalType": "uint256",
          "name": "",
          "type": "uint256"
        }
      ],
      "stateMutability": "view",
      "type": "function"
    },
    {
      "inputs": [
        {
          "internalType": "address",
          "name": "_submitter",
          "type": "address"
        }
      ],
      "name": "getDocsBySubmitter",
      "outputs": [
        {
          "internalType": "bytes32[]",
          "name": "",
          "type": "bytes32[]"
        }
      ],
      "stateMutability": "view",
      "type": "function"
    },
    {
      "inputs": [
        {
          "internalType": "bytes32",
          "name": "_docHash",
          "type": "bytes32"
        }
      ],
      "name": "isNotarized",
      "outputs": [
        {
          "internalType": "bool",
          "name": "",
          "type": "bool"
        }
      ],
      "stateMutability": "view",
      "type": "function"
    },
    {
      "inputs": [
        {
          "internalType": "bytes32",
          "name": "_docHash",
          "type": "bytes32"
        },
        {
          "internalType": "string",
          "name": "_description",
          "type": "string"
        }
      ],
      "name": "notarize",
      "outputs": [],
      "stateMutability": "nonpayable",
      "type": "function"
    },
    {
      "inputs": [
        {
          "internalType": "string",
          "name": "_rawContent",
          "type": "string"
        }
      ],
      "name": "notarizeString",
      "outputs": [
        {
          "internalType": "bytes32",
          "name": "hash",
          "type": "bytes32"
        }
      ],
      "stateMutability": "pure",
      "type": "function"
    },
    {
      "inputs": [
        {
          "internalType": "bytes32",
          "name": "_docHash",
          "type": "bytes32"
        }
      ],
      "name": "revoke",
      "outputs": [],
      "stateMutability": "nonpayable",
      "type": "function"
    },
    {
      "inputs": [
        {
          "internalType": "bytes32",
          "name": "_docHash",
          "type": "bytes32"
        }
      ],
      "name": "verify",
      "outputs": [
        {
          "components": [
            {
              "internalType": "bytes32",
              "name": "docHash",
              "type": "bytes32"
            },
            {
              "internalType": "address",
              "name": "submitter",
              "type": "address"
            },
            {
              "internalType": "uint256",
              "name": "timestamp",
              "type": "uint256"
            },
            {
              "internalType": "uint256",
              "name": "blockNumber",
              "type": "uint256"
            },
            {
              "internalType": "string",
              "name": "description",
              "type": "string"
            },
            {
              "internalType": "bool",
              "name": "revoked",
              "type": "bool"
            }
          ],
          "internalType": "struct ProofOfExistence.Document",
          "name": "",
          "type": "tuple"
        }
      ],
      "stateMutability": "view",
      "type": "function"
    }
  ],
  "bytecode": "0x6080604052348015600f57600080fd5b506111948061001f6000396000f3fe608060405234801561001057600080fd5b506004361061007d5760003560e01c8063b75c7dc61161005b578063b75c7dc614610100578063d00779451461011c578063e1be66fe14610138578063fe6ad6c6146101685761007d565b806375e3661614610082578063925cc9ab146100b2578063a5b16b2e146100e2575b600080fd5b61009c6004803603810190610097919061086d565b610198565b6040516100a99190610a37565b60405180910390f35b6100cc60048036038101906100c79190610a85565b6102e5565b6040516100d99190610b61565b60405180910390f35b6100ea61037c565b6040516100f79190610b92565b60405180910390f35b61011a6004803603810190610115919061086d565b610382565b005b61013660048036038101906101319190610c12565b610486565b005b610152600480360381019061014d9190610c72565b61075b565b60405161015f9190610cce565b60405180910390f35b610182600480360381019061017d919061086d565b61078e565b60405161018f9190610cf8565b60405180910390f35b6101a06107dc565b6000808381526020019081526020016000206040518060c0016040529081600082015481526020016001820160009054906101000a900473ffffffffffffffffffffffffffffffffffffffff1673ffffffffffffffffffffffffffffffffffffffff1673ffffffffffffffffffffffffffffffffffffffff168152602001600282015481526020016003820154815260200160048201805461024190610d42565b80601f016020809104026020016040519081016040528092919081815260200182805461026d90610d42565b80156102ba5780601f1061028f576101008083540402835291602001916102ba565b820191906000526020600020905b81548152906001019060200180831161029d57829003601f168201915b505050505081526020016005820160009054906101000a900460ff1615151515815250509050919050565b6060600160008373ffffffffffffffffffffffffffffffffffffffff1673ffffffffffffffffffffffffffffffffffffffff16815260200190815260200160002080548060200260200160405190810160405280929190818152602001828054801561037057602002820191906000526020600020905b81548152602001906001019080831161035c575b50505050509050919050565b60035481565b3373ffffffffffffffffffffffffffffffffffffffff1660008083815260200190815260200160002060010160009054906101000a900473ffffffffffffffffffffffffffffffffffffffff1673ffffffffffffffffffffffffffffffffffffffff161461041c576040517f245af86f00000000000000000000000000000000000000000000000000000000815260040160405180910390fd5b600160008083815260200190815260200160002060050160006101000a81548160ff0219169083151502179055507f5bc2baf870c5baf189838b5e0b0e3b04a3263e2df5d305d1c15f3e6022f5dc45813360405161047b929190610d82565b60405180910390a150565b600080600085815260200190815260200160002060020154148360008086815260200190815260200160002060010160009054906101000a900473ffffffffffffffffffffffffffffffffffffffff1660008087815260200190815260200160002060020154909192610531576040517fe66d355100000000000000000000000000000000000000000000000000000000815260040161052893929190610dab565b60405180910390fd5b50505060006040518060c001604052808581526020013373ffffffffffffffffffffffffffffffffffffffff16815260200142815260200143815260200184848080601f016020809104026020016040519081016040528093929190818152602001838380828437600081840152601f19601f820116905080830192505050505050508152602001600015158152509050806000808681526020019081526020016000206000820151816000015560208201518160010160006101000a81548173ffffffffffffffffffffffffffffffffffffffff021916908373ffffffffffffffffffffffffffffffffffffffff1602179055506040820151816002015560608201518160030155608082015181600401908161064f9190610fbd565b5060a08201518160050160006101000a81548160ff0219169083151502179055509050506002849080600181540180825580915050600190039060005260206000200160009091909190915055600160003373ffffffffffffffffffffffffffffffffffffffff1673ffffffffffffffffffffffffffffffffffffffff16815260200190815260200160002084908060018154018082558091505060019003906000526020600020016000909190919091505560036000815480929190610715906110be565b91905055507f3b81aad505fa92e45a66f5e9eca921d7b8166fbff9daed34ff5445aaac0020e184334260405161074d93929190610dab565b60405180910390a150505050565b60008282604051602001610770929190611145565b60405160208183030381529060405280519060200120905092915050565b60008060008084815260200190815260200160002060020154141580156107d5575060008083815260200190815260200160002060050160009054906101000a900460ff16155b9050919050565b6040518060c0016040528060008019168152602001600073ffffffffffffffffffffffffffffffffffffffff1681526020016000815260200160008152602001606081526020016000151581525090565b600080fd5b600080fd5b6000819050919050565b61084a81610837565b811461085557600080fd5b50565b60008135905061086781610841565b92915050565b6000602082840312156108835761088261082d565b5b600061089184828501610858565b91505092915050565b6108a381610837565b82525050565b600073ffffffffffffffffffffffffffffffffffffffff82169050919050565b60006108d4826108a9565b9050919050565b6108e4816108c9565b82525050565b6000819050919050565b6108fd816108ea565b82525050565b600081519050919050565b600082825260208201905092915050565b60005b8381101561093d578082015181840152602081019050610922565b60008484015250505050565b6000601f19601f8301169050919050565b600061096582610903565b61096f818561090e565b935061097f81856020860161091f565b61098881610949565b840191505092915050565b60008115159050919050565b6109a881610993565b82525050565b600060c0830160008301516109c6600086018261089a565b5060208301516109d960208601826108db565b5060408301516109ec60408601826108f4565b5060608301516109ff60608601826108f4565b5060808301518482036080860152610a17828261095a565b91505060a0830151610a2c60a086018261099f565b508091505092915050565b60006020820190508181036000830152610a5181846109ae565b905092915050565b610a62816108c9565b8114610a6d57600080fd5b50565b600081359050610a7f81610a59565b92915050565b600060208284031215610a9b57610a9a61082d565b5b6000610aa984828501610a70565b91505092915050565b600081519050919050565b600082825260208201905092915050565b6000819050602082019050919050565b6000610aea838361089a565b60208301905092915050565b6000602082019050919050565b6000610b0e82610ab2565b610b188185610abd565b9350610b2383610ace565b8060005b83811015610b54578151610b3b8882610ade565b9750610b4683610af6565b925050600181019050610b27565b5085935050505092915050565b60006020820190508181036000830152610b7b8184610b03565b905092915050565b610b8c816108ea565b82525050565b6000602082019050610ba76000830184610b83565b92915050565b600080fd5b600080fd5b600080fd5b60008083601f840112610bd257610bd1610bad565b5b8235905067ffffffffffffffff811115610bef57610bee610bb2565b5b602083019150836001820283011115610c0b57610c0a610bb7565b5b9250929050565b600080600060408486031215610c2b57610c2a61082d565b5b6000610c3986828701610858565b935050602084013567ffffffffffffffff811115610c5a57610c59610832565b5b610c6686828701610bbc565b92509250509250925092565b60008060208385031215610c8957610c8861082d565b5b600083013567ffffffffffffffff811115610ca757610ca6610832565b5b610cb385828601610bbc565b92509250509250929050565b610cc881610837565b82525050565b6000602082019050610ce36000830184610cbf565b92915050565b610cf281610993565b82525050565b6000602082019050610d0d6000830184610ce9565b92915050565b7f4e487b7100000000000000000000000000000000000000000000000000000000600052602260045260246000fd5b60006002820490506001821680610d5a57607f821691505b602082108103610d6d57610d6c610d13565b5b50919050565b610d7c816108c9565b82525050565b6000604082019050610d976000830185610cbf565b610da46020830184610d73565b9392505050565b6000606082019050610dc06000830186610cbf565b610dcd6020830185610d73565b610dda6040830184610b83565b949350505050565b7f4e487b7100000000000000000000000000000000000000000000000000000000600052604160045260246000fd5b60008190508160005260206000209050919050565b60006020601f8301049050919050565b600082821b905092915050565b600060088302610e737fffffffffffffffffffffffffffffffffffffffffffffffffffffffffffffffff82610e36565b610e7d8683610e36565b95508019841693508086168417925050509392505050565b6000819050919050565b6000610eba610eb5610eb0846108ea565b610e95565b6108ea565b9050919050565b6000819050919050565b610ed483610e9f565b610ee8610ee082610ec1565b848454610e43565b825550505050565b600090565b610efd610ef0565b610f08818484610ecb565b505050565b5b81811015610f2c57610f21600082610ef5565b600181019050610f0e565b5050565b601f821115610f7157610f4281610e11565b610f4b84610e26565b81016020851015610f5a578190505b610f6e610f6685610e26565b830182610f0d565b50505b505050565b600082821c905092915050565b6000610f9460001984600802610f76565b1980831691505092915050565b6000610fad8383610f83565b9150826002028217905092915050565b610fc682610903565b67ffffffffffffffff811115610fdf57610fde610de2565b5b610fe98254610d42565b610ff4828285610f30565b600060209050601f8311600181146110275760008415611015578287015190505b61101f8582610fa1565b865550611087565b601f19841661103586610e11565b60005b8281101561105d57848901518255600182019150602085019450602081019050611038565b8683101561107a5784890151611076601f891682610f83565b8355505b6001600288020188555050505b505050505050565b7f4e487b7100000000000000000000000000000000000000000000000000000000600052601160045260246000fd5b60006110c9826108ea565b91507fffffffffffffffffffffffffffffffffffffffffffffffffffffffffffffffff82036110fb576110fa61108f565b5b600182019050919050565b600081905092915050565b82818337600083830152505050565b600061112c8385611106565b9350611139838584611111565b82840190509392505050565b6000611152828486611120565b9150819050939250505056fea2646970667358221220980f1edd1d50dc5a3e21ee0d9a2b0b52c0ef5297e8cdd78c4c2ad6aaf0823b4864736f6c634300081e0033",
  "linkReferences": {},
  "deployedLinkReferences": {}
}